{
  "_format": "hh-sol-artifact-1",
  "contractName": "SimpleSwap",
  "sourceName": "contracts/SimpleSwap.sol",
  "abi": [
    {
      "inputs": [
        {
          "internalType": "address",
          "name": "_token0",
          "type": "address"
        },
        {
          "internalType": "address",
          "name": "_token1",
          "type": "address"
        }
      ],
      "stateMutability": "nonpayable",
      "type": "constructor"
    },
    {
      "inputs": [
        {
          "internalType": "address",
          "name": "spender",
          "type": "address"
        },
        {
          "internalType": "uint256",
          "name": "allowance",
          "type": "uint256"
        },
        {
          "internalType": "uint256",
          "name": "needed",
          "type": "uint256"
        }
      ],
      "name": "ERC20InsufficientAllowance",
      "type": "error"
    },
    {
      "inputs": [
        {
          "internalType": "address",
          "name": "sender",
          "type": "address"
        },
        {
          "internalType": "uint256",
          "name": "balance",
          "type": "uint256"
        },
        {
          "internalType": "uint256",
          "name": "needed",
          "type": "uint256"
        }
      ],
      "name": "ERC20InsufficientBalance",
      "type": "error"
    },
    {
      "inputs": [
        {
          "internalType": "address",
          "name": "approver",
          "type": "address"
        }
      ],
      "name": "ERC20InvalidApprover",
      "type": "error"
    },
    {
      "inputs": [
        {
          "internalType": "address",
          "name": "receiver",
          "type": "address"
        }
      ],
      "name": "ERC20InvalidReceiver",
      "type": "error"
    },
    {
      "inputs": [
        {
          "internalType": "address",
          "name": "sender",
          "type": "address"
        }
      ],
      "name": "ERC20InvalidSender",
      "type": "error"
    },
    {
      "inputs": [
        {
          "internalType": "address",
          "name": "spender",
          "type": "address"
        }
      ],
      "name": "ERC20InvalidSpender",
      "type": "error"
    },
    {
      "inputs": [],
      "name": "SimpleSwap__Expired",
      "type": "error"
    },
    {
      "inputs": [],
      "name": "SimpleSwap__IdenticalAddresses",
      "type": "error"
    },
    {
      "inputs": [],
      "name": "SimpleSwap__InsufficientAAmount",
      "type": "error"
    },
    {
      "inputs": [],
      "name": "SimpleSwap__InsufficientAOutput",
      "type": "error"
    },
    {
      "inputs": [],
      "name": "SimpleSwap__InsufficientBAmount",
      "type": "error"
    },
    {
      "inputs": [],
      "name": "SimpleSwap__InsufficientBOutput",
      "type": "error"
    },
    {
      "inputs": [],
      "name": "SimpleSwap__InsufficientInputAmount",
      "type": "error"
    },
    {
      "inputs": [],
      "name": "SimpleSwap__InsufficientLiquidityMinted",
      "type": "error"
    },
    {
      "inputs": [],
      "name": "SimpleSwap__InsufficientOutputAmount",
      "type": "error"
    },
    {
      "inputs": [],
      "name": "SimpleSwap__InvalidPair",
      "type": "error"
    },
    {
      "inputs": [],
      "name": "SimpleSwap__InvalidPath",
      "type": "error"
    },
    {
      "inputs": [],
      "name": "SimpleSwap__InvalidTokens",
      "type": "error"
    },
    {
      "inputs": [],
      "name": "SimpleSwap__NoLiquidity",
      "type": "error"
    },
    {
      "inputs": [],
      "name": "SimpleSwap__TransferFailed",
      "type": "error"
    },
    {
      "inputs": [],
      "name": "SimpleSwap__ZeroAddress",
      "type": "error"
    },
    {
      "anonymous": false,
      "inputs": [
        {
          "indexed": true,
          "internalType": "address",
          "name": "owner",
          "type": "address"
        },
        {
          "indexed": true,
          "internalType": "address",
          "name": "spender",
          "type": "address"
        },
        {
          "indexed": false,
          "internalType": "uint256",
          "name": "value",
          "type": "uint256"
        }
      ],
      "name": "Approval",
      "type": "event"
    },
    {
      "anonymous": false,
      "inputs": [
        {
          "indexed": true,
          "internalType": "address",
          "name": "provider",
          "type": "address"
        },
        {
          "indexed": false,
          "internalType": "uint256",
          "name": "amount0",
          "type": "uint256"
        },
        {
          "indexed": false,
          "internalType": "uint256",
          "name": "amount1",
          "type": "uint256"
        },
        {
          "indexed": false,
          "internalType": "uint256",
          "name": "liquidity",
          "type": "uint256"
        }
      ],
      "name": "LiquidityAdded",
      "type": "event"
    },
    {
      "anonymous": false,
      "inputs": [
        {
          "indexed": true,
          "internalType": "address",
          "name": "provider",
          "type": "address"
        },
        {
          "indexed": false,
          "internalType": "uint256",
          "name": "amount0",
          "type": "uint256"
        },
        {
          "indexed": false,
          "internalType": "uint256",
          "name": "amount1",
          "type": "uint256"
        }
      ],
      "name": "LiquidityRemoved",
      "type": "event"
    },
    {
      "anonymous": false,
      "inputs": [
        {
          "indexed": true,
          "internalType": "address",
          "name": "user",
          "type": "address"
        },
        {
          "indexed": true,
          "internalType": "address",
          "name": "tokenIn",
          "type": "address"
        },
        {
          "indexed": true,
          "internalType": "address",
          "name": "tokenOut",
          "type": "address"
        },
        {
          "indexed": false,
          "internalType": "uint256",
          "name": "amountIn",
          "type": "uint256"
        },
        {
          "indexed": false,
          "internalType": "uint256",
          "name": "amountOut",
          "type": "uint256"
        }
      ],
      "name": "SwapExecuted",
      "type": "event"
    },
    {
      "anonymous": false,
      "inputs": [
        {
          "indexed": true,
          "internalType": "address",
          "name": "from",
          "type": "address"
        },
        {
          "indexed": true,
          "internalType": "address",
          "name": "to",
          "type": "address"
        },
        {
          "indexed": false,
          "internalType": "uint256",
          "name": "value",
          "type": "uint256"
        }
      ],
      "name": "Transfer",
      "type": "event"
    },
    {
      "inputs": [
        {
          "internalType": "address",
          "name": "tokenA",
          "type": "address"
        },
        {
          "internalType": "address",
          "name": "tokenB",
          "type": "address"
        },
        {
          "internalType": "uint256",
          "name": "amountADesired",
          "type": "uint256"
        },
        {
          "internalType": "uint256",
          "name": "amountBDesired",
          "type": "uint256"
        },
        {
          "internalType": "uint256",
          "name": "amountAMin",
          "type": "uint256"
        },
        {
          "internalType": "uint256",
          "name": "amountBMin",
          "type": "uint256"
        },
        {
          "internalType": "address",
          "name": "to",
          "type": "address"
        },
        {
          "internalType": "uint256",
          "name": "deadline",
          "type": "uint256"
        }
      ],
      "name": "addLiquidity",
      "outputs": [
        {
          "internalType": "uint256",
          "name": "amountA",
          "type": "uint256"
        },
        {
          "internalType": "uint256",
          "name": "amountB",
          "type": "uint256"
        },
        {
          "internalType": "uint256",
          "name": "liquidity",
          "type": "uint256"
        }
      ],
      "stateMutability": "nonpayable",
      "type": "function"
    },
    {
      "inputs": [
        {
          "internalType": "address",
          "name": "owner",
          "type": "address"
        },
        {
          "internalType": "address",
          "name": "spender",
          "type": "address"
        }
      ],
      "name": "allowance",
      "outputs": [
        {
          "internalType": "uint256",
          "name": "",
          "type": "uint256"
        }
      ],
      "stateMutability": "view",
      "type": "function"
    },
    {
      "inputs": [
        {
          "internalType": "address",
          "name": "spender",
          "type": "address"
        },
        {
          "internalType": "uint256",
          "name": "value",
          "type": "uint256"
        }
      ],
      "name": "approve",
      "outputs": [
        {
          "internalType": "bool",
          "name": "",
          "type": "bool"
        }
      ],
      "stateMutability": "nonpayable",
      "type": "function"
    },
    {
      "inputs": [
        {
          "internalType": "address",
          "name": "account",
          "type": "address"
        }
      ],
      "name": "balanceOf",
      "outputs": [
        {
          "internalType": "uint256",
          "name": "",
          "type": "uint256"
        }
      ],
      "stateMutability": "view",
      "type": "function"
    },
    {
      "inputs": [],
      "name": "decimals",
      "outputs": [
        {
          "internalType": "uint8",
          "name": "",
          "type": "uint8"
        }
      ],
      "stateMutability": "view",
      "type": "function"
    },
    {
      "inputs": [
        {
          "internalType": "uint256",
          "name": "amountIn",
          "type": "uint256"
        },
        {
          "internalType": "uint256",
          "name": "reserveIn",
          "type": "uint256"
        },
        {
          "internalType": "uint256",
          "name": "reserveOut",
          "type": "uint256"
        }
      ],
      "name": "getAmountOut",
      "outputs": [
        {
          "internalType": "uint256",
          "name": "amountOut",
          "type": "uint256"
        }
      ],
      "stateMutability": "pure",
      "type": "function"
    },
    {
      "inputs": [
        {
          "internalType": "address",
          "name": "tokenA",
          "type": "address"
        },
        {
          "internalType": "address",
          "name": "tokenB",
          "type": "address"
        }
      ],
      "name": "getPrice",
      "outputs": [
        {
          "internalType": "uint256",
          "name": "price",
          "type": "uint256"
        }
      ],
      "stateMutability": "view",
      "type": "function"
    },
    {
      "inputs": [],
      "name": "name",
      "outputs": [
        {
          "internalType": "string",
          "name": "",
          "type": "string"
        }
      ],
      "stateMutability": "view",
      "type": "function"
    },
    {
      "inputs": [
        {
          "internalType": "address",
          "name": "tokenA",
          "type": "address"
        },
        {
          "internalType": "address",
          "name": "tokenB",
          "type": "address"
        },
        {
          "internalType": "uint256",
          "name": "liquidity",
          "type": "uint256"
        },
        {
          "internalType": "uint256",
          "name": "amountAMin",
          "type": "uint256"
        },
        {
          "internalType": "uint256",
          "name": "amountBMin",
          "type": "uint256"
        },
        {
          "internalType": "address",
          "name": "to",
          "type": "address"
        },
        {
          "internalType": "uint256",
          "name": "deadline",
          "type": "uint256"
        }
      ],
      "name": "removeLiquidity",
      "outputs": [
        {
          "internalType": "uint256",
          "name": "amountA",
          "type": "uint256"
        },
        {
          "internalType": "uint256",
          "name": "amountB",
          "type": "uint256"
        }
      ],
      "stateMutability": "nonpayable",
      "type": "function"
    },
    {
      "inputs": [],
      "name": "reserve0",
      "outputs": [
        {
          "internalType": "uint256",
          "name": "",
          "type": "uint256"
        }
      ],
      "stateMutability": "view",
      "type": "function"
    },
    {
      "inputs": [],
      "name": "reserve1",
      "outputs": [
        {
          "internalType": "uint256",
          "name": "",
          "type": "uint256"
        }
      ],
      "stateMutability": "view",
      "type": "function"
    },
    {
      "inputs": [
        {
          "internalType": "uint256",
          "name": "amountIn",
          "type": "uint256"
        },
        {
          "internalType": "uint256",
          "name": "amountOutMin",
          "type": "uint256"
        },
        {
          "internalType": "address[]",
          "name": "path",
          "type": "address[]"
        },
        {
          "internalType": "address",
          "name": "to",
          "type": "address"
        },
        {
          "internalType": "uint256",
          "name": "deadline",
          "type": "uint256"
        }
      ],
      "name": "swapExactTokensForTokens",
      "outputs": [],
      "stateMutability": "nonpayable",
      "type": "function"
    },
    {
      "inputs": [],
      "name": "symbol",
      "outputs": [
        {
          "internalType": "string",
          "name": "",
          "type": "string"
        }
      ],
      "stateMutability": "view",
      "type": "function"
    },
    {
      "inputs": [],
      "name": "token0",
      "outputs": [
        {
          "internalType": "address",
          "name": "",
          "type": "address"
        }
      ],
      "stateMutability": "view",
      "type": "function"
    },
    {
      "inputs": [],
      "name": "token1",
      "outputs": [
        {
          "internalType": "address",
          "name": "",
          "type": "address"
        }
      ],
      "stateMutability": "view",
      "type": "function"
    },
    {
      "inputs": [],
      "name": "totalSupply",
      "outputs": [
        {
          "internalType": "uint256",
          "name": "",
          "type": "uint256"
        }
      ],
      "stateMutability": "view",
      "type": "function"
    },
    {
      "inputs": [
        {
          "internalType": "address",
          "name": "to",
          "type": "address"
        },
        {
          "internalType": "uint256",
          "name": "value",
          "type": "uint256"
        }
      ],
      "name": "transfer",
      "outputs": [
        {
          "internalType": "bool",
          "name": "",
          "type": "bool"
        }
      ],
      "stateMutability": "nonpayable",
      "type": "function"
    },
    {
      "inputs": [
        {
          "internalType": "address",
          "name": "from",
          "type": "address"
        },
        {
          "internalType": "address",
          "name": "to",
          "type": "address"
        },
        {
          "internalType": "uint256",
          "name": "value",
          "type": "uint256"
        }
      ],
      "name": "transferFrom",
      "outputs": [
        {
          "internalType": "bool",
          "name": "",
          "type": "bool"
        }
      ],
      "stateMutability": "nonpayable",
      "type": "function"
    }
  ],
  "bytecode": "0x60c03462000419576001600160401b03601f601f1962001ae438819003838101831686019190858311878410176200041e57808792604094855283398101031262000419576200004f8462000454565b926200005f602080960162000454565b946200006a62000434565b601381527f53696d706c6553776170204c5020546f6b656e00000000000000000000000000828201526200009d62000434565b9460049586815263053534c560e41b848201528251938585116200031f576003948554946001958681811c911680156200040e575b84821014620003f957908186849311620003a3575b508390868311600114620003405760009262000334575b505060001982881b1c191690851b1785555b81519586116200031f5787548481811c9116801562000314575b82821014620002ff57838111620002b4575b5080928611600114620002485750849550908492916000956200023c575b50501b92600019911b1c19161781555b6001600160a01b03828116908115801562000231575b620002205784161462000211575060805260a05260405161167a90816200046a82396080518181816101370152818161065a01528181610c290152818161109901526114b9015260a0518181816104f501528181610538015281816105db0152818161080e015281816109390152818161098201528181610e8d01528181610eee0152818161158d01526115d60152f35b6040516323d3a79b60e11b8152fd5b60405163453c1bfb60e11b81528390fd5b508085161562000180565b0151935038806200015a565b939295859081168860005285600020956000905b898383106200029957505050106200027e575b50505050811b0181556200016a565b01519060f884600019921b161c19169055388080806200026f565b8587015189559097019694850194889350908101906200025c565b88600052816000208480890160051c820192848a10620002f5575b0160051c019085905b828110620002e85750506200013c565b60008155018590620002d8565b92508192620002cf565b602289634e487b7160e01b6000525260246000fd5b90607f16906200012a565b604188634e487b7160e01b6000525260246000fd5b015190503880620000fe565b908a8894169189600052856000209260005b878282106200038c575050841162000373575b505050811b01855562000110565b0151600019838a1b60f8161c1916905538808062000365565b8385015186558b9790950194938401930162000352565b90915087600052836000208680850160051c820192868610620003ef575b918991869594930160051c01915b828110620003df575050620000e7565b60008155859450899101620003cf565b92508192620003c1565b60228b634e487b7160e01b6000525260246000fd5b90607f1690620000d2565b600080fd5b634e487b7160e01b600052604160045260246000fd5b60408051919082016001600160401b038111838210176200041e57604052565b51906001600160a01b0382168203620004195756fe6040608081526004908136101561001557600080fd5b600091823560e01c8063054d50d41461126557806306fdde0314611171578063095ea7b3146110c85780630dfe16811461108457806318160ddd1461106557806323b872dd14610f6f578063313ce56714610f5357806338ed173914610b96578063443cb4bc14610b775780635a76f25e14610b5857806370a0823114610b2157806395d89b4114610a21578063a9059cbb146109f0578063ac41865a146109bb578063baa2abde1461060a578063d21220a7146105c6578063dd62ed3e146105795763e8e33700146100e757600080fd5b3461057557610100366003190112610575576101016112d6565b9161010a6112f1565b6044359460c4356001600160a01b03818116959391606435908790036105715760e43542116105615781807f0000000000000000000000000000000000000000000000000000000000000000169816908882148099819a610533575b81156104f3575b50156104e357600554906006549081838d8115806104db575b15610473575050509a995b1561046a5789908b925b6002549a8b610431576101ae8585611440565b89600382111561042357508060019080821c82810180911161040f5791905b8383106103ef575050505b9b5b8c156103df5781156103c8579284928e97958795938f8f9c9b9995906102028f92829061141d565b6002558282526020809e838252808420838154019055519182527fddf252ad1be2c89b69c2b068fc378daa952ba7f163c4a11628f55a4df523b3ef91a36102489161141d565b916102529161141d565b90600555600655895180918c339461027b92846040919493926060820195825260208201520152565b037f64b83944e79c3ce8d4c297411de637c3e102d064677aac0c163976ebdcd6f50e91a287516323b872dd60e01b808252338983019081523060208201526040810195909552939091869183919082908a90829060600103925af19081156103be5786916103a1575b501561039157865191825233868301908152306020820152604081018b905291939283928592839188919083906060010393165af19283156103865792610359575b50501561034b57505191825260208201929092526040810191909152606090f35b0390f35b90516310d3795160e01b8152fd5b6103789250803d1061037f575b6103708183611307565b810190611473565b3880610326565b503d610366565b8551903d90823e3d90fd5b86516310d3795160e01b81528690fd5b6103b89150853d871161037f576103708183611307565b386102e4565b88513d88823e3d90fd5b8b5163ec442f0560e01b8152808c018b9052602490fd5b8b51636e9b539f60e11b81528b90fd5b90919250610406836104018184611453565b61141d565b821c91906101cd565b50634e487b7160e01b8c5260118d5260248cfd5b90156101d8575060016101d8565b8b6104538461044761044c86610447868b611440565b611453565b9389611440565b8082101561046357505b9b6101da565b905061045d565b8a908a9261019b565b6104809261044791611440565b908082116104a9575060a4358110610499579a99610191565b8851630281099560e01b81528890fd5b9b50506104ba81610447848e611440565b9a6084358c106104cb579a99610191565b8851635b3734db60e01b81528890fd5b508215610186565b865163d7b20b6f60e01b81528690fd5b7f000000000000000000000000000000000000000000000000000000000000000085168414915081610527575b503861016d565b90508385161438610520565b8585167f00000000000000000000000000000000000000000000000000000000000000008616149150610166565b855163bb1a9a5f60e01b81528590fd5b8380fd5b8280fd5b5050346105c257806003193601126105c257806020926105976112d6565b61059f6112f1565b6001600160a01b0391821683526001865283832091168252845220549051908152f35b5080fd5b5050346105c257816003193601126105c257517f00000000000000000000000000000000000000000000000000000000000000006001600160a01b03168152602090f35b508290346105c25760e03660031901126105c2576106266112d6565b9161062f6112f1565b60a435926044359290916001600160a01b039081861686036105755760c43542116109ab57819081807f00000000000000000000000000000000000000000000000000000000000000001698169088808314948593849661097d575b8415610937575b50505050156109275760055495600654976002546106c26106b7826104478c8c611440565b916104478c8b611440565b941561091e57809985995b6064358c1061090e576084358b106108fe5733156108e757338852602099888b528d8920548181106108bb57938e8c9461075a8b6107548f9a968f9a988b8289936107c69c838f338252520389832055806002540360025588519081527fddf252ad1be2c89b69c2b068fc378daa952ba7f163c4a11628f55a4df523b3ef8d3392a361148b565b9261148b565b9060055560065580518281528a868201527f96cd817c6329656790ef8fba7675405193677d39619571282f5e21f3a98cd059823392a25163a9059cbb60e01b8082526001600160a01b038916978201978852602088019290925290959094859384928391604090910190565b03925af19081156108b1578691610894575b50156108845789519081526001600160a01b039091168582019081526020810193909352918591839182908690829060400103927f0000000000000000000000000000000000000000000000000000000000000000165af1918215610879579161085c575b501561084e57508351928352820152f35b84516310d3795160e01b8152fd5b6108739150833d851161037f576103708183611307565b8661083d565b8751903d90823e3d90fd5b89516310d3795160e01b81528690fd5b6108ab9150883d8a1161037f576103708183611307565b8b6107d8565b8b513d88823e3d90fd5b8e5163391434e360e21b815233818d019081526020810192909252604082018390529081906060010390fd5b8c51634b637e8f60e11b8152808a01899052602490fd5b8c51634858f92d60e11b81528990fd5b8c51637e0eccd560e01b81528990fd5b849981996106cd565b875163d7b20b6f60e01b81528490fd5b7f00000000000000000000000000000000000000000000000000000000000000008216149350909183610971575b50505089888382610692565b1614905087828b610965565b8382167f0000000000000000000000000000000000000000000000000000000000000000831614945061068b565b875163bb1a9a5f60e01b81528490fd5b5050346105c257806003193601126105c2576020906109e96109db6112d6565b6109e36112f1565b906114ac565b9051908152f35b5050346105c257806003193601126105c257602090610a1a610a106112d6565b602435903361133f565b5160018152f35b509190346105c257816003193601126105c257805191809380549160019083821c92828516948515610b17575b6020958686108114610b0457858952908115610ae05750600114610a88575b6103478787610a7e828c0383611307565b519182918261128d565b81529295507f8a35acfbc15ff81a39ae7d344fd709f28e8600b4aa8c65c6b64bfe7fe36bd19b5b828410610acd575050508261034794610a7e92820101943880610a6d565b8054868501880152928601928101610aaf565b60ff19168887015250505050151560051b8301019250610a7e826103473880610a6d565b634e487b7160e01b845260228352602484fd5b93607f1693610a4e565b5050346105c25760203660031901126105c25760209181906001600160a01b03610b496112d6565b16815280845220549051908152f35b5050346105c257816003193601126105c2576020906006549051908152f35b5050346105c257816003193601126105c2576020906005549051908152f35b5090346105755760a03660031901126105755767ffffffffffffffff6044358335828211610f4f5736602383011215610f4f5781850135928311610f4f576024918281019336848260051b84010111610f4b576001600160a01b039460643592908684168403610f47576084354211610f375760028303610f275782159182610f15579087939291610c2782611498565b7f000000000000000000000000000000000000000000000000000000000000000086169916891480610ed4575b8015610e7c575b15610e6c576005549160065493610e5a57610c7590611498565b9360011015610e4857610c8b6044869201611498565b93169788148015610e3e57610ca283835b896115ff565b97358810610e2e5786610d3c959493928992600014610e0f57610cc992916107549161141d565b906005556006555b1692865190808252868560209884898b809701527f764f0dc063c06f32d89a3f3af80c0db4be8a090901f589a478b447e0a51f09f18c3392a488516323b872dd60e01b815233818c01908152306020820152604081019390935293849283918d918391606090910190565b03925af1908115610e05578891610de8575b5015610dd857845163a9059cbb60e01b81526001600160a01b039091168682019081526020810193909352918391839182908990829060400103925af1918215610dce578592610db1575b505015610da4578280f35b516310d3795160e01b8152fd5b610dc79250803d1061037f576103708183611307565b3880610d99565b83513d87823e3d90fd5b84516310d3795160e01b81528690fd5b610dff9150853d871161037f576103708183611307565b38610d4e565b86513d8a823e3d90fd5b610e2292610e1c9161148b565b9261141d565b90600555600655610cd1565b895163775baed560e11b81528b90fd5b610ca28284610c9c565b634e487b7160e01b8c5260328b52878cfd5b634e487b7160e01b8d5260328c52888dfd5b89516308da6e4160e21b81528b90fd5b508b9250610e8982611498565b85167f00000000000000000000000000000000000000000000000000000000000000008616148015610c5b57508360011015610e48578885610ecd60448401611498565b1614610c5b565b508360011015610e4857610eea60448201611498565b85167f0000000000000000000000000000000000000000000000000000000000000000861614610c54565b634e487b7160e01b8b5260328a52868bfd5b87516363f473bd60e01b81528990fd5b875163bb1a9a5f60e01b81528990fd5b8980fd5b8780fd5b8580fd5b5050346105c257816003193601126105c2576020905160128152f35b50823461106257606036600319011261106257610f8a6112d6565b610f926112f1565b916044359360018060a01b038316808352600160205286832033845260205286832054916000198310610fce575b602088610a1a89898961133f565b86831061103657811561101f57331561100857508252600160209081528683203384528152918690209085900390558290610a1a87610fc0565b8751634a1406b160e11b8152908101849052602490fd5b875163e602df0560e01b8152908101849052602490fd5b8751637dc7a0d960e11b8152339181019182526020820193909352604081018790528291506060010390fd5b80fd5b5050346105c257816003193601126105c2576020906002549051908152f35b5050346105c257816003193601126105c257517f00000000000000000000000000000000000000000000000000000000000000006001600160a01b03168152602090f35b50346105755781600319360112610575576110e16112d6565b60243590331561115a576001600160a01b031691821561114357508083602095338152600187528181208582528752205582519081527f8c5be1e5ebec7d5bd14f71427d1e84f3dd0314c0f7b2291e5b200ac8c7c3b925843392a35160018152f35b8351634a1406b160e11b8152908101859052602490fd5b835163e602df0560e01b8152808401869052602490fd5b509034610575578260031936011261057557805191836003549060019082821c92828116801561125b575b6020958686108214611248575084885290811561122657506001146111cd575b6103478686610a7e828b0383611307565b929550600383527fc2575a0e9e593c00f959f8c92f12db2869c3395a3b0502d05e2516446f71f85b5b828410611213575050508261034794610a7e9282010194386111bc565b80548685018801529286019281016111f6565b60ff191687860152505050151560051b8301019250610a7e82610347386111bc565b634e487b7160e01b845260229052602483fd5b93607f169361119c565b50913461106257606036600319011261106257506109e96020926044359060243590356115ff565b6020808252825181830181905290939260005b8281106112c257505060409293506000838284010152601f8019910116010190565b8181018601518482016040015285016112a0565b600435906001600160a01b03821682036112ec57565b600080fd5b602435906001600160a01b03821682036112ec57565b90601f8019910116810190811067ffffffffffffffff82111761132957604052565b634e487b7160e01b600052604160045260246000fd5b916001600160a01b0380841692831561140457169283156113eb57600090838252816020526040822054908382106113b9575091604082827fddf252ad1be2c89b69c2b068fc378daa952ba7f163c4a11628f55a4df523b3ef958760209652828652038282205586815220818154019055604051908152a3565b60405163391434e360e21b81526001600160a01b03919091166004820152602481019190915260448101839052606490fd5b60405163ec442f0560e01b815260006004820152602490fd5b604051634b637e8f60e11b815260006004820152602490fd5b9190820180921161142a57565b634e487b7160e01b600052601160045260246000fd5b8181029291811591840414171561142a57565b811561145d570490565b634e487b7160e01b600052601260045260246000fd5b908160209103126112ec575180151581036112ec5790565b9190820391821161142a57565b356001600160a01b03811681036112ec5790565b6001600160a01b039081167f000000000000000000000000000000000000000000000000000000000000000082168181149384939092846115d1575b841561158b575b5050505015611579576005549081159081801561156f575b61155d571561153b575060065490670de0b6b3a76400009182810292818404149015171561142a5761153891611453565b90565b670de0b6b3a764000080830292830414171561142a5760065461153891611453565b604051631007816960e11b8152600490fd5b5060065415611507565b60405163d7b20b6f60e01b8152600490fd5b7f000000000000000000000000000000000000000000000000000000000000000082161493509091836115c5575b505050388080806114ef565b161490503880806115b9565b8382167f000000000000000000000000000000000000000000000000000000000000000083161494506114e8565b918215611632578115801561162a575b61155d5782610e1c6116249261153895611440565b90611453565b50801561160f565b604051631041023f60e11b8152600490fdfea26469706673582212200468584493e06a707ab24591d43b06db4e7b5f591f1631963e2f027522e1ad3b64736f6c63430008140033",
  "linkReferences": {},
  "deployedLinkReferences": {}
}